:020000040000FA
:100000000A128A11E72FFF1B0D2883137F1883170D
:100010000008840A0319FF0A080000308A00040857
:10002000840A8207003443346834653463346B34A3
:10003000733475346D3420344534723472346F3413
:100040007234213400344E346F34203452346534E9
:10005000733470346F346E34733465340034543414
:1000600069346D34653420346F347534743421341C
:0200700000345A
:100936007E088A007F0882000A128A119B240A1206
:100946008A118000840A04087D0603190034FF0A10
:100956000319FE0A9F2CF200720883120313860005
:100966000814FD30FF007F08880508151A30F100CD
:10097600F830F000F00BBD2CF10BBD2C0000FB3065
:10098600FF007F08831203138805080083160313EC
:1009960088118312031388114130F100EE30F00004
:1009A600F00BD32CF10BD32C000083120313881504
:1009B6001330F000F00BDD2CE02C831603138815A2
:1009C6000800523448342034203420343D34203456
:1009D600303430342E34303420342534003454341A
:1009E60065346D34703420343D3420343034303442
:1009F6002E3430342034433400341A30F000F00BF7
:100A0600022D00008312031388190A2D0B2D1B2DAE
:100A16003530F000F00B0D2D83120313881D142DB5
:100A2600152D1B2D2130F000F00B172D03141C2D56
:100A360003100800F2007208831203138600FE30CA
:100A4600FF007F088805FD30FF007F088805081530
:100A56001A30F100F830F000F00B2F2DF10B2F2D8E
:100A66000000FB30FF007F0883120313880508008F
:100A7600F501522D75087307840074080318740A6B
:100A8600FF000A128A1103200A128A110A128A1119
:100A9600AE240A128A110130FF007F08F507750897
:100AA6007307840074080318740A83120313FF0083
:100AB6000A128A1103200A128A11003A031D642DB4
:100AC600652D3D2D0800F200720884008001F101B9
:100AD600831203138F018E01782D65300E02031CDD
:100AE600752D762D782D0314AC2D881D7B2D7C2D30
:100AF600702D8F018E01862D65300E02031C842D0C
:100B0600852D862D762D8819892D8A2D7F2D3330BA
:100B16000E02031C8F2D902DA12D0130F0007108BF
:100B2600073C013E982D0310F00DFF3E031D962D48
:100B36007008FF00720884007F0880040130FF00FF
:100B46007F08F10708307102031CAA2DAB2D6B2D0F
:100B560003100800F501F31FB12DB22DB92DF209CE
:100B6600F309F20A0319F30AF501F50AF11FBC2D80
:100B7600BD2DC22DF009F109F00A0319F10A70081A
:100B860071040319C72DC82DF72DF401F40AD62DCB
:100B960001300310F00DF10DFF3E031DCC2D013089
:100BA600FF007F08F407F11FD92DDA2DCB2D710830
:100BB6007302031DE02D70087202031CE32DE42D61
:100BC600EA2D7008F2027108031CF303F3020130E8
:100BD6000310F10CF00CFF3E031DEB2D0130F40267
:100BE600031DF62DF72DDA2D75080319FB2DFC2DA7
:100BF600012EF209F309F20A0319F30A7308F10048
:100C06007208F0000800F501F11F0A2E0B2E122EB5
:100C1600F009F109F00A0319F10AF501F50AF31FC3
:100C2600152E162E1F2EF209F309F20A0319F30ADE
:100C36000130FF007F08F506F601F7017008710420
:100C46000319262E272E5E2EF401F40A352E0130C6
:100C56000310F00DF10DFF3E031D2B2E0130FF009A
:100C66007F08F407F11F382E392E2A2E0130031083
:100C7600F60DF70DFF3E031D3A2E71087302031D94
:100C8600462E70087202031C492E4A2E512E7008F9
:100C9600F2027108031CF303F30276140130031009
:100CA600F10CF00CFF3E031D522E0130F402031D21
:100CB6005D2E5E2E392E75080319622E632E682E60
:100CC600F609F709F60A0319F70A7708F100760814
:100CD600F0000800831603138601880138300A12D3
:100CE6008A111D250A128A110E300A128A111D2533
:100CF6000A128A110A128A11C9240A128A110A12C0
:100D06008A1100250A128A11031C8A2E8B2EC02FE7
:100D16007A300A128A1166250A128A110318942E4D
:100D2600952EBD2E79300A128A1166250A128A116D
:100D360003189E2E9F2EBD2E7C300A128A11662520
:100D46000A128A110318A82EA92EBD2E7B300A126C
:100D56008A1166250A128A110318B22EB32EBD2EE9
:100D660078300A128A1166250A128A11031CBC2ED3
:100D7600BD2ED32E01300A128A111D250A128A11A0
:100D860080300A128A111D250A128A111D30F300BD
:100D96008030F4000A128A113B250A128A11D52FD7
:100DA6007A08790783120313BC00BD01BD0D7C08C8
:100DB6003C07BE000030031801303D07BF007B082A
:100DC6003E07C0000030031801303F07C100FF3066
:100DD6004005C20000304105C3007808C400C501C3
:100DE60043084506031DF92E42084406031DFC2E42
:100DF600FD2EAA2F0A30F0000030F1007C08BC005E
:100E0600BD013C08F2003D08F3000A128A110626CD
:100E16000A128A117008303EFF007F0883120313FE
:100E2600B5000A30F0000030F1007C08BC00BD01BE
:100E36003C08F2003D08F3000A128A11AD250A1299
:100E46008A117008303EFF007F0883120313B60034
:100E56000A30F0000030F1007B08BC00BD013C0800
:100E6600F2003D08F3000A128A1106260A128A11B8
:100E76007008303EFF007F0883120313B8000A3063
:100E8600F0000030F1007A08BC00BD013C08F20019
:100E96003D08F3000A128A1106260A128A11700802
:100EA600303EFF007F0883120313A7000A30F000CC
:100EB6000030F1007A08BC00BD013C08F2003D0894
:100EC600F3000A128A11AD250A128A117008303E03
:100ED600FF007F0883120313A8000A30F0000030D9
:100EE600F1007908BC00BD013C08F2003D08F300A2
:100EF6000A128A1106260A128A117008303EFF006D
:100F06007F0883120313AA00DF30FF007F08B900B1
:100F160080300A128A111D250A128A112E30F3001A
:100F26000030F4000A128A113B250A128A11C030D9
:100F36000A128A111D250A128A112030F300003088
:100F4600F4000A128A113B250A128A11D52F0130A4
:100F56000A128A111D250A128A1180300A128A1174
:100F66001D250A128A110130F3008030F4000A129E
:100F76008A113B250A128A11D52F01300A128A11CD
:100F86001D250A128A1180300A128A111D250A129D
:100F96008A111130F3008030F4000A128A113B25C1
:100FA6000A128A110B3083120313BE002630BD00CD
:100FB6005D30BC00BC0BDD2FBD0BDD2FBE0BDD2F66
:100FC6007D2E0A128A11002883133C30FD0004305E
:100FD600FE00E430FF00203084000A128A119F24AC
:100FE6000A128A11C601C701F801F901FA01FB01CB
:0A0FF600FC0183010A128A116D2E1E
:02400E00713F00
:00000001FF
