:020000040000FA
:060000000A128A1110280B
:10000800FE00030EF3000A08F400831203137F08AE
:10001800F5000A128A11AB2C0A128A1113288313CD
:10002800B030FD000530FE001430FF00A030840021
:100038000A128A11F4240A128A114D30FD00033085
:10004800FE00D730FF00203084000A128A11F42401
:100058000A128A110A128A1124250A128A11F70033
:10006800E201E301E401E501E601F60183010A1278
:100078008A1130290A128A1158240A128A110A127E
:100088008A1131240A128A110A128A11D2220A12FA
:100098008A11FF007F0883120313E4000A128A11F1
:1000A800D2220A128A11FF007F0883120313E30089
:1000B8000A128A11D2220A128A11FF007F088312BB
:1000C8000313E6000A128A11D2220A128A11FF00CB
:1000D8007F0883120313E5000A128A11D2220A123A
:1000E8008A11FF007F0883120313E2006408630784
:1000F800D500D601D60D66085507D700003003187D
:1001080001305607D80065085707D9000030031892
:1001180001305807DA00FF305905DB0000305A0576
:10012800DC006208DD00DE015C085E06031D9E2817
:100138005B085D06031DA128A2282E290A30CD00E0
:100148000030CE006608D500D6015508CF00560805
:10015800D0000A128A11C7210A128A1183120313C6
:100168004D08303EFF007F08C6000A30CD00003041
:10017800CE006608D500D6015508CF005608D00035
:100188000A128A1130220A128A11831203134D08A7
:10019800303EFF007F08C7000A30CD000030CE0097
:1001A8006508D500D6015508CF005608D0000A12B8
:1001B8008A11C7210A128A11831203134D08303E8F
:1001C800FF007F08C9000A30CD000030CE00640867
:1001D800D500D6015508CF005608D0000A128A115A
:1001E800C7210A128A11831203134D08303EFF00FB
:1001F8007F08B8000A30CD000030CE006408D50072
:10020800D6015508CF005608D0000A128A113022AC
:100218000A128A11831203134D08303EFF007F082B
:10022800B9000A30CD000030CE006308D500D601F1
:100238005508CF005608D0000A128A11C7210A12A1
:100248008A11831203134D08303EFF007F08BB005C
:1002580003142F29031008008316031301170B1624
:100268008B170A128A1176240A128A110A128A1125
:1002780003250A128A1176184229432981290A126C
:100288008A113E200A128A11031C4B294C296F2916
:1002980080300A128A118B220A128A113F30831287
:1002A8000313D0000030D1000A128A1104240A1264
:1002B8008A11C0300A128A118B220A128A1131302F
:1002C80083120313D0000030D1000A128A110424CB
:1002D8000A128A11A92980300A128A118B220A125D
:1002E8008A11013083120313D0008030D1000A1222
:1002F8008A1104240A128A11A92901300A128A11C2
:100308008B220A128A1180300A128A118B220A1251
:100318008A11213083120313D0000030D1000A1251
:100328008A1104240A128A11C0300A128A118B22F7
:100338000A128A11A03083120313D0000030D100B2
:100348000A128A1104240A128A115F30FF007F08FA
:1003580083120313D00064080A128A119B230A121D
:100368008A11033083120313E1008A30E00055300C
:10037800DF00DF0BBD29E00BBD29E10BBD293F29BB
:100388000A128A11102883120313D201CE1FCD2915
:10039800CE29D529CD09CE09CD0A0319CE0AD20115
:1003A800D20AD01FD829D929E229CF09D009CF0AE2
:1003B8000319D00A0130FF007F08D206D301D40107
:1003C8004D084E040319E929EA29212AD101D10A45
:1003D800F82901300310CD0DCE0DFF3E031DEE2987
:1003E8000130FF007F08D107CE1FFB29FC29ED292A
:1003F80001300310D30DD40DFF3E031DFD294E0817
:100408005002031D092A4D084F02031C0C2A0D2A0D
:10041800142A4D08CF024E08031CD003D0025314EF
:1004280001300310CE0CCD0CFF3E031D152A013000
:10043800D102031D202A212AFC2952080319252A42
:10044800262A2B2AD309D409D30A0319D40A540813
:10045800CE005308CD00080083120313D201D01F29
:10046800362A372A3E2ACF09D009CF0A0319D00ADB
:10047800D201D20ACE1F412A422A472ACD09CE09E3
:10048800CD0A0319CE0A4D084E0403194C2A4D2AE9
:100498007C2AD101D10A5B2A01300310CD0DCE0D83
:1004A800FF3E031D512A0130FF007F08D107CE1FF0
:1004B8005E2A5F2A502A4E085002031D652A4D08FD
:1004C8004F02031C682A692A6F2A4D08CF024E087A
:1004D800031CD003D00201300310CE0CCD0CFF3E1C
:1004E800031D702A0130D102031D7B2A7C2A5F2A52
:1004F80052080319802A812A862ACF09D009CF0AEF
:100508000319D00A5008CE004F08CD000800831206
:100518000313CF004F08F0398800FE30FF007F0832
:100528008805FD30FF007F088805081541308312D3
:100538000313CE00ED30CD00CD0BA02ACE0BA02AA0
:10054800A52AFB30FF007F088312031388054F0894
:10055800CD0003300310CD0DFF3E031DAE2A03105E
:100568004D0DF0398800FE30FF007F088805FD300A
:10057800FF007F0888050815413083120313CE0059
:10058800ED30CD00CD0BC62ACE0BC62ACB2AFB30C8
:10059800FF007F08831203138805080083120313E2
:1005A800D001CF010310061A0314003003180130DC
:1005B800CD00CE014D1CE12AE22AD62A3130831221
:1005C8000313CD00CD0BE62A031083120313061A7A
:1005D8000314003003180130CD00CE014D1CF52A5C
:1005E800F62AF92A0314D00DFF2A5008CD004D072A
:1005F800FF007F08D0000310061A03140030031808
:100608000130CD00CE014D180A2B0B2BFF2A0130EB
:10061800FF007F08CF0708304F02031C142B152B4F
:10062800D62A50080800F2007208F0398312031322
:100638008800FE30FF007F088805FD30FF007F0836
:10064800880508154130F100EE30F000F00B2A2B38
:10065800F10B2A2B0000FB30FF007F0883120313E5
:1006680088057208F00003300310F00DFF3E031DEB
:10067800382B0310700DF0398800FE30FF007F081A
:100688008805FD30FF007F08880508154130F10016
:10069800EE30F000F00B4E2BF10B4E2B0000FB3030
:1006A800FF007F08831203138805080083120313D1
:1006B800CF004F08F03988000814FD30FF007F088C
:1006C80088050815413083120313CE00ED30CD00A4
:1006D800CD0B6C2BCE0B6C2B712BFB30FF007F08E6
:1006E8008312031388054F08CD0003300310CD0D86
:1006F800FF3E031D7A2B03104D0DF03988000814B6
:10070800FD30FF007F088805081541308312031368
:10071800CE00ED30CD00CD0B8F2BCE0B8F2B942B35
:10072800FB30FF007F08831203138805080083123B
:100738000313D1000A30FF007F08CD005108500292
:100748000A128A11C3240A128A11FF007F08831231
:100758000313D20052080319B22BB32BD02BC83085
:1007680052020318B82BB92BC92B0A30FF007F0897
:10077800CD0052080A128A11C3240A128A110A12D9
:100788008A1192240A128A11D62BC8300A128A11A9
:1007980092240A128A11D62B00300A128A11922446
:1007A8000A128A1108005F344934443454346534D9
:1007B8006D34703420343D342034323430342E34A7
:1007C8003034203443340034523448342034203414
:1007D80020343D342034303430342E343034203416
:1007E80025340034543465346D34703420343D3449
:1007F8002034303430342E34303420344334003410
:1008080083120313D2011F2C520850078400510889
:100818000318510AFF000A128A11DA240A128A11EF
:100828000A128A115A230A128A110130FF007F081E
:1008380083120313D2075208500784005108031883
:10084800510AFF000A128A11DA240A128A11003AA0
:10085800031D2F2C302C082C0800031083120313BF
:10086800061A0314003003180130CD00CE014D18CC
:100878003E2C3F2C312C0310061A031400300318A9
:100888000130CD00CE014D1C4A2C4B2C3F2C0310BF
:10089800061A0314003003180130CD00CE014D189C
:1008A800562C572C4B2C0800831603130612831260
:1008B80003130612A33083120313CE005430CD0065
:1008C800CD0B642CCE0B642C000083120313061688
:1008D800313083120313CD00CD0B702C8316031314
:1008E8000616080083160313880102300A128A11BB
:1008F8008B220A128A1128300A128A118B220A12B4
:100908008A110E300A128A118B220A128A110130BA
:100918000A128A118B220A128A1108008312031301
:10092800CE004E18982C9C2C8312031317169F2C5C
:1009380083120313171297124E08CD0002300310CA
:10094800CD0CFF3E031DA32C4D08950008008B1C01
:10095800AE2CAF2CB82C0130F60601300A128A11E1
:1009680017230A128A118B10750883120313FF00CC
:1009780074088A00730E8300FE0E7E0E090083122F
:100988000313CF00CE014F1CCA2CCB2CCF2C4D0803
:10099800FF007F08CE070310CD0D0310CF0C4F08C2
:1009A800031DD72CD82CC72C4E080800FF1BE42C9D
:1009B80083137F1883170008840A0319FF0A0800A5
:1009C80004308A000408840A8207003445347234EB
:1009D80072346F34723400347E088A007F088200D3
:1009E8000A128A11F0240A128A118000840A040863
:1009F8007D0603190034FF0A0319FE0AF42C83123A
:100A0800031317159715831603130711831203137E
:100A18001214921412153130831603139200080031
:100A280049344434523448342034203420343D345A
:100A38002034383435342E343034203425340034DE
:020A4800143464
:02400E00713F00
:00000001FF
