:020000040000FA
:060000000A128A11EE2F26
:100DD20047346F346F34643420346D346F3472347A
:100DE2006E3469346E346734213400347E088A00EC
:100DF2007F0882000A128A11F7260A128A118000DD
:100E0200840A04087D0603190034FF0A0319FE0A46
:100E1200FB2EF20072088312031386000814FD30C1
:100E2200FF007F08880508158230F100DD30F000F0
:100E3200F00B192FF10B192F1E2FFB30FF007F082B
:100E42008312031388058230F100DD30F000F00BCD
:100E5200282FF10B282F2D2F0800F2007208831281
:100E620003138600FE30FF007F088805FD30FF0077
:100E72007F08880508158230F100DD30F000F00BA4
:100E8200402FF10B402F452FFB30FF007F088312CC
:100E9200031388058230F100DD30F000F00B4F2F94
:100EA200F10B4F2F542F0800203084002F30F30015
:100EB2000408F4000E30F500730884008313000860
:100EC200F600F30A7408840076088000F40AF50B31
:100ED2005D2F831603138601880138300A128A11A6
:100EE2002E270A128A110E300A128A112E270A128E
:100EF2008A1101300A128A112E270A128A118030B1
:100F02000A128A112E270A128A1148300A128A11ED
:100F12000A270A128A1165300A128A110A270A124E
:100F22008A116C300A128A110A270A128A116C304D
:100F32000A128A110A270A128A116F300A128A11BA
:100F42000A270A128A1120300A128A110A270A1263
:100F52008A1177300A128A110A270A128A116F300F
:100F62000A128A110A270A128A1172300A128A1187
:100F72000A270A128A116C300A128A110A270A12E7
:100F82008A1164300A128A110A270A128A11C030A1
:100F92000A128A112E270A128A1183120313AE0132
:100FA200E12F2E08203E840000080A128A110A2727
:100FB2000A128A110130FF007F0883120313AE0761
:100FC2002E08203E840083130008031DE92FEA2F18
:100FD200D22FEA2F0A128A11002883133D30FD0016
:100FE2000630FE00E930FF002F3084000A128A1119
:0E0FF200FB260A128A1183010A128A11552F5A
:02400E00713F00
:00000001FF
