:020000040000FA
:060000000A128A1110280B
:10000800FE00030EF3000A08F400831203137F08AE
:10001800F5000A128A11C12C0A128A1113288313B7
:10002800B030FD000530FE003A30FF00A0308400FB
:100038000A128A111A250A128A114D30FD0003305E
:10004800FE009C30FF00203084000A128A111A2515
:100058000A128A110A128A114A250A128A11F7000D
:10006800E201E301E401E501E601F60183010A1278
:100078008A1130290A128A116E240A128A110A1268
:100088008A1121240A128A110A128A11D3220A1209
:100098008A11FF007F0883120313E4000A128A11F1
:1000A800D3220A128A11FF007F0883120313E30088
:1000B8000A128A11D3220A128A11FF007F088312BA
:1000C8000313E6000A128A11D3220A128A11FF00CA
:1000D8007F0883120313E5000A128A11D3220A1239
:1000E8008A11FF007F0883120313E2006408630784
:1000F800D500D601D60D66085507D700003003187D
:1001080001305607D80065085707D9000030031892
:1001180001305807DA00FF305905DB0000305A0576
:10012800DC006208DD00DE015C085E06031D9E2817
:100138005B085D06031DA128A2282E290A30CD00E0
:100148000030CE006608D500D6015508CF00560805
:10015800D0000A128A11C8210A128A1183120313C5
:100168004D08303EFF007F08C6000A30CD00003041
:10017800CE006608D500D6015508CF005608D00035
:100188000A128A1131220A128A11831203134D08A6
:10019800303EFF007F08C7000A30CD000030CE0097
:1001A8006508D500D6015508CF005608D0000A12B8
:1001B8008A11C8210A128A11831203134D08303E8E
:1001C800FF007F08C9000A30CD000030CE00640867
:1001D800D500D6015508CF005608D0000A128A115A
:1001E800C8210A128A11831203134D08303EFF00FA
:1001F8007F08B8000A30CD000030CE006408D50072
:10020800D6015508CF005608D0000A128A113122AB
:100218000A128A11831203134D08303EFF007F082B
:10022800B9000A30CD000030CE006308D500D601F1
:100238005508CF005608D0000A128A11C8210A12A0
:100248008A11831203134D08303EFF007F08BB005C
:1002580003142F29031008008316031301170B1624
:100268008B170A128A118C240A128A110A128A110F
:1002780029250A128A1176184229432981290A1246
:100288008A113E200A128A11031C4B294C296F2916
:1002980080300A128A118C220A128A113F30831286
:1002A8000313D0000030D1000A128A11C9230A12A0
:1002B8008A11C0300A128A118C220A128A1131302E
:1002C80083120313D0000030D1000A128A11C92307
:1002D8000A128A11A92980300A128A118C220A125C
:1002E8008A11013083120313D0008030D1000A1222
:1002F8008A11C9230A128A11A92901300A128A11FE
:100308008C220A128A1180300A128A118C220A124F
:100318008A11213083120313D0000030D1000A1251
:100328008A11C9230A128A11C0300A128A118C2232
:100338000A128A11A03083120313D0000030D100B2
:100348000A128A11C9230A128A115F30FF007F0836
:1003580083120313D40064080A128A1148240A126B
:100368008A111A3083120313E1005E30E0006D3009
:10037800DF00DF0BBD29E00BBD29E10BBD29C42936
:100388003F290A128A11102883120313D201CE1FA3
:10039800CE29CF29D629CD09CE09CD0A0319CE0AEF
:1003A800D201D20AD01FD929DA29E329CF09D009E5
:1003B800CF0A0319D00A0130FF007F08D206D30103
:1003C800D4014D084E040319EA29EB29222AD10148
:1003D800D10AF92901300310CD0DCE0DFF3E031DC2
:1003E800EF290130FF007F08D107CE1FFC29FD2926
:1003F800EE2901300310D30DD40DFF3E031DFE2955
:100408004E085002031D0A2A4D084F02031C0D2AEC
:100418000E2A152A4D08CF024E08031CD003D0021D
:10042800531401300310CE0CCD0CFF3E031D162AC9
:100438000130D102031D212A222AFD29520803195D
:10044800262A272A2C2AD309D409D30A0319D40A1D
:100458005408CE005308CD00080083120313D201BC
:10046800D01F372A382A3F2ACF09D009CF0A0319C3
:10047800D00AD201D20ACE1F422A432A482ACD09DD
:10048800CE09CD0A0319CE0A4D084E0403194D2A88
:100498004E2A7D2AD101D10A5C2A01300310CD0DE4
:1004A800CE0DFF3E031D522A0130FF007F08D10701
:1004B800CE1F5F2A602A512A4E085002031D662A61
:1004C8004D084F02031C692A6A2A702A4D08CF0278
:1004D8004E08031CD003D00201300310CE0CCD0C03
:1004E800FF3E031D712A0130D102031D7C2A7D2A9B
:1004F800602A52080319812A822A872ACF09D0093B
:10050800CF0A0319D00A5008CE004F08CD000800C2
:1005180083120313CF004F08F0398800FE30FF0024
:100528007F088805FD30FF007F08880508154130E1
:1005380083120313CE00ED30CD00CD0BA12ACE0BD4
:10054800A12AA62AFB30FF007F088312031388051F
:100558004F08CD0003300310CD0DFF3E031DAF2A19
:1005680003104D0DF0398800FE30FF007F08880524
:10057800FD30FF007F0888050815413083120313FA
:10058800CE00ED30CD00CD0BC72ACE0BC72ACC2A22
:10059800FB30FF007F0883120313880508008312CD
:1005A8000313D001CF010310061A031400300318F7
:1005B8000130CD00CE014D1CE22AE32AD72A313082
:1005C80083120313CD00CD0BE72A03108312031304
:1005D800061A0314003003180130CD00CE014D1C5B
:1005E800F62AF72AFA2A0314D00D002B5008CD005A
:1005F8004D07FF007F08D0000310061A03140030CF
:1006080003180130CD00CE014D180B2B0C2B002BFD
:100618000130FF007F08CF0708304F02031C152B5D
:10062800162BD72A50080800F2007208F0398312F6
:1006380003138800FE30FF007F088805FD30FF00A7
:100648007F08880508154130F100EE30F000F00B06
:100658002B2BF10B2B2B0000FB30FF007F088312A4
:10066800031388057208F00003300310F00DFF3EF5
:10067800031D392B0310700DF0398800FE30FF0080
:100688007F088805FD30FF007F0888050815413080
:10069800F100EE30F000F00B4F2BF10B4F2B000068
:1006A800FB30FF007F0883120313880508008312BC
:1006B8000313CF004F08F03988000814FD30FF00FD
:1006C8007F0888050815413083120313CE00ED30EA
:1006D800CD00CD0B6D2BCE0B6D2B722BFB30FF009D
:1006E8007F088312031388054F08CD0003300310D9
:1006F800CD0DFF3E031D7B2B03104D0DF0398800F7
:100708000814FD30FF007F08880508154130831262
:100718000313CE00ED30CD00CD0B902BCE0B902BDC
:10072800952BFB30FF007F08831203138805080010
:100738005F3449344434543465346D34703420346F
:100748003D342034323430342E3430342034433481
:100758000034523448342034203420343D3420349A
:10076800303430342E34303420342534003454348A
:1007780065346D34703420343D34203430343034B2
:100788002E34303420344334003483120313D2011E
:10079800E42B52085007840051080318510AFF003F
:1007A8000A128A1100250A128A110A128A115B2379
:1007B8000A128A110130FF007F0883120313D2073F
:1007C80052085007840051080318510AFF000A1202
:1007D8008A1100250A128A11003A031DF42BF52B01
:1007E800CD2B080083120313CE00D0014D08031946
:1007F800FE2BFF2B1F2CCF01CF0A082C0310CD0D89
:100808000130FF007F08CF07CD1F0B2C0C2C022CCA
:100818000310D00D4D084E02031C132C142C172C5A
:100828004D08CE0250140310CD0C0130CF02031D29
:100838001E2C1F2C0C2C50080800031083120313C5
:10084800061A0314003003180130CD00CE014D18EC
:100858002E2C2F2C212C0310061A031400300318F9
:100868000130CD00CE014D1C3A2C3B2C2F2C03100F
:10087800061A0314003003180130CD00CE014D18BC
:10088800462C472C3B2C080083120313D50055082F
:100898005402FF007F08D60056080319542C552C23
:1008A8006D2CC830FF007F08D1005408FF007F0876
:1008B800CD0056080A128A11F6230A128A110A1262
:1008C8008A11D9240A128A110A128A11A8240A1232
:1008D8008A110800831603130612831203130612E3
:1008E800A33083120313CE005430CD00CD0B7A2CE5
:1008F800CE0B7A2C000083120313061631308312B4
:100908000313CD00CD0B862C83160313061608009F
:1009180083160313880102300A128A118C220A12E4
:100928008A1128300A128A118C220A128A110E3072
:100938000A128A118C220A128A1101300A128A11AB
:100948008C220A128A11080083120313CE004E1853
:10095800AE2CB22C831203131716B52C8312031373
:10096800171297124E08CD0002300310CD0CFF3E2F
:10097800031DB92C4D08950008008B1CC42CC52CF0
:10098800CE2C0130F60601300A128A1118230A12F9
:100998008A118B10750883120313FF0074088A00EC
:1009A800730E8300FE0E7E0E090083120313D3001C
:1009B800D201531CE02CE12CE52C5108FF007F08E4
:1009C800D2070310D10D0310D30C5308031DED2CCF
:0809D800EE2CDD2C5208080092
:100A0000FF1B0A2D83137F1883170008840A03191C
:100A1000FF0A080005308A000408840A82070034AF
:100A20004534723472346F34723400347E088A0074
:100A30007F0882000A128A1116250A128A11800084
:100A4000840A04087D0603190034FF0A0319FE0A0C
:100A50001A2D831203131715971583160313071105
:100A600083120313121492141215313083160313D8
:100A7000920008004934443452344834203420343D
:100A800020343D342034393435342E34303420345D
:060A90002534003414348B
:02400E00713F00
:00000001FF
