:020000040000FA
:100000000A128A11E72FFF1B0D2883137F1883170D
:100010000008840A0319FF0A080000308A00040857
:10002000840A820700344534723472346F34723477
:0200300000349A
:100996007E088A007F0882000A128A11CB240A1276
:1009A6008A118000840A04087D0603190034FF0AB0
:1009B6000319FE0ACF2CF200720883120313860075
:1009C6000814FD30FF007F08880508151A30F1006D
:1009D600F830F000F00BED2CF10BED2C0000FB30A5
:1009E600FF007F088312031388050800831603138C
:1009F60088118312031388114130F100EE30F000A4
:100A0600F00B032DF10B032D000083120313881541
:100A16001330F000F00B0D2D102D831603138815DF
:100A26000800523448342034203420343D342034F5
:100A3600303430342E3430342034253400345434B9
:100A460065346D34703420343D34203430343034E1
:100A56002E343034203443340034F20072088312CA
:100A660003138600FE30FF007F088805FD30FF0077
:100A76007F08880508151A30F100F830F000F00BF1
:100A8600422DF10B422D0000FB30FF007F08831240
:100A9600031388050800031083120313881903142F
:100AA600003003180130F000F10170185B2D5C2D49
:100AB6004E2D031088190314003003180130F0007E
:100AC600F101701C672D682D5C2D03108819031425
:100AD600003003180130F000F1017018732D742DE9
:100AE600682D0800F5018C2D7508730784007408BD
:100AF6000318740AFF000A128A1103200A128A11C7
:100B06000A128A11DE240A128A110130FF007F08B8
:100B1600F50775087307840074080318740A8312AE
:100B26000313FF000A128A1103200A128A11003ADF
:100B3600031D9E2D9F2D772D0800F301F201031052
:100B46008312031388190314003003180130F000D0
:100B5600F101701CAF2DB02DA22D1330F000F00B5B
:100B6600B22DB52D03108312031388190314003018
:100B760003180130F000F101701CC22DC32DC62DE3
:100B86000314F30DCC2D7308F0007007FF007F08E7
:100B9600F300031088190314003003180130F00025
:100BA600F1017018D72DD82DCC2D0130FF007F080C
:100BB600F20708307202031CE12DE22DA22D730804
:100BC6000800F501F31FE82DE92DF02DF209F309D0
:100BD600F20A0319F30AF501F50AF11FF32DF42DB4
:100BE600F92DF009F109F00A0319F10A70087104E8
:100BF6000319FE2DFF2D2E2EF401F40A0D2E0130C1
:100C06000310F00DF10DFF3E031D032E0130FF0012
:100C16007F08F407F11F102E112E022E71087302A1
:100C2600031D172E70087202031C1A2E1B2E212E6E
:100C36007008F2027108031CF303F302013003107B
:100C4600F10CF00CFF3E031D222E0130F402031DB1
:100C56002D2E2E2E112E75080319322E332E382ED8
:100C6600F209F309F20A0319F30A7308F10072088C
:100C7600F0000800F501F11F412E422E492EF00921
:100C8600F109F00A0319F10AF501F50AF31F4C2ED2
:100C96004D2E562EF209F309F20A0319F30A013012
:100CA600FF007F08F506F601F701700871040319C5
:100CB6005D2E5E2E952EF401F40A6C2E0130031083
:100CC600F00DF10DFF3E031D622E0130FF007F087F
:100CD600F407F11F6F2E702E612E01300310F60DF2
:100CE600F70DFF3E031D712E71087302031D7D2E45
:100CF60070087202031C802E812E882E7008F20264
:100D06007108031CF303F302761401300310F10C8F
:100D1600F00CFF3E031D892E0130F402031D942EB4
:100D2600952E702E75080319992E9A2E9F2EF60968
:100D3600F709F60A0319F70A7708F1007608F000B2
:100D46000800831603138601880138300A128A11B7
:100D560030250A128A110E300A128A1130250A121B
:100D66008A110A128A11F9240A128A110A128A11A0
:100D76004E250A128A110A128A11A0250A128A1110
:100D8600FF007F08FA000A128A11A0250A128A11AA
:100D9600FF007F08F9000A128A11A0250A128A119B
:100DA600FF007F08FC000A128A11A0250A128A1188
:100DB600FF007F08FB000A128A11A0250A128A1179
:100DC600FF007F08F8007A08790783120313BC0036
:100DD600BD01BD0D7C083C07BE0000300318013084
:100DE6003D07BF007B083E07C000003003180130F6
:100DF6003F07C100FF304005C20000304105C30077
:100E06007808C400C50143084506031D0C2F420897
:100E16004406031D0F2F102FBD2F0A30F00000309F
:100E2600F1007C08BC00BD013C08F2003D08F3005F
:100E36000A128A113D260A128A117008303EFF00F6
:100E46007F0883120313B5000A30F0000030F1006A
:100E56007C08BC00BD013C08F2003D08F3000A1204
:100E66008A11E4250A128A117008303EFF007F08B5
:100E760083120313B6000A30F0000030F1007B083D
:100E8600BC00BD013C08F2003D08F3000A128A11BD
:100E96003D260A128A117008303EFF007F08831231
:100EA6000313B8000A30F0000030F1007A08BC00E5
:100EB600BD013C08F2003D08F3000A128A113D26E6
:100EC6000A128A117008303EFF007F08831203134E
:100ED600A7000A30F0000030F1007A08BC00BD011E
:100EE6003C08F2003D08F3000A128A11E4250A12B2
:100EF6008A117008303EFF007F0883120313A80092
:100F06000A30F0000030F1007908BC00BD013C0851
:100F1600F2003D08F3000A128A113D260A128A11D0
:100F26007008303EFF007F0883120313AA00DF30EB
:100F3600FF007F08B90080300A128A1130250A1294
:100F46008A112E30F3000030F4000A128A1175253A
:100F56000A128A11C0300A128A1130250A128A1121
:100F66002030F3000030F4000A128A1175250A12A7
:100F76008A11D22F01300A128A1130250A128A11DB
:100F860080300A128A1130250A128A110130F300C4
:100F96008030F4000A128A1175250A128A1183120A
:100FA600031310100B3083120313BE002630BD004E
:100FB6005D30BC00BC0BDD2FBD0BDD2FBE0BDD2F66
:100FC600B42E0A128A11002883133C30FD00053026
:100FD600FE001430FF00203084000A128A11CF244C
:100FE6000A128A11C601C701F801F901FA01FB01CB
:0A0FF600FC0183010A128A11A42EE7
:02400E00713F00
:00000001FF
