:020000040000FA
:060000000A128A1110280B
:10000800FE00030EF6000A08F700831203137F08A8
:10001800F8000A128A11CC2D0A128A1113288313A8
:10002800B030FD000630FE00D130FF00A030840063
:100038000A128A11B1260A128A114D30FD000530C4
:10004800FE007830FF00203084000A128A11B126A1
:100058000A128A110A128A11F7260A128A11F9005D
:10006800E801E901EA01EB01EC01ED0183010A1263
:100078008A113E288316031301170B168B17880164
:100088008312031308110A128A118E220A128A1186
:100098000A128A11C0260A128A110A128A11EE2639
:1000A8000A128A110A128A11E1260A128A11831287
:1000B80003136808031D61286228A2280A128A11FE
:1000C80033210A128A11031C6A286B289628831286
:1000D8000313D101D10A01300A128A110E240A121F
:1000E8008A113F3083120313D4000030D5000A125E
:1000F8008A11B1240A128A1183120313D101D10A79
:1001080002300A128A110E240A128A11313083121F
:100118000313D4000030D5000A128A11B1240A1240
:100128008A110E290E3083120313D4008030D500B3
:100138000A128A11B1240A128A110E296803031DB2
:10014800A628A728D028D101D10A01300A128A117D
:100158000E240A128A11213083120313D4000030AE
:10016800D5000A128A11B1240A128A1183120313C4
:10017800D101D10A02300A128A110E240A128A11F8
:10018800A03083120313D4000030D5000A128A115C
:10019800B1240A128A110E29D101D10A01300A129A
:1001A8008A110E240A128A11013083120313D40013
:1001B8008030D5000A128A11B1240A128A118312DA
:1001C8000313D101D10A02300A128A110E240A122D
:1001D8008A110A3083120313D3000030D400003090
:1001E800CD00CE000A128A11F6220A128A11831251
:1001F80003134E08D6004D08D5000A128A1125228D
:100208000A128A118312031353080A128A117D26CF
:100218000A128A110230831203136806031915297A
:10022800162920295F30FF007F08D0006B080A12CA
:100238008A113C250A128A111A3083120313E70027
:100248005E30E6006D30E500E50B2829E60B28292D
:10025800E70B28292F2956280A128A1110280A1272
:100268008A1143260A128A110A128A11A5250A122E
:100278008A110A128A11F7240A128A11FF007F08CC
:1002880083120313EB000A128A11F7240A128A1147
:10029800FF007F0883120313EA000A128A11F72469
:1002A8000A128A11FF007F0883120313ED000A1255
:1002B8008A11F7240A128A11FF007F088312031398
:1002C800EC000A128A11F7240A128A11FF007F082B
:1002D80083120313E9006B086A07DB00DC01DC0DFD
:1002E8006D085B07DD000030031801305C07DE0095
:1002F8006C085D07DF000030031801305E07E0007E
:10030800FF305F05E10000306005E2006908E300A6
:10031800E40162086406031D932961086306031D4E
:1003280096299729232A0A30D3000030D4006D0873
:10033800DB00DC015B08D5005C08D6000A128A11D4
:1003480025220A128A11831203135308303EFF0034
:100358007F08C6000A30CD000030CE006D08DB00F3
:10036800DC015B08CF005C08D0000A128A115A230E
:100378000A128A11831203134D08303EFF007F08CA
:10038800C7000A30D3000030D4006C08DB00DC0161
:100398005B08D5005C08D6000A128A1125220A12C9
:1003A8008A11831203135308303EFF007F08C900E7
:1003B8000A30D3000030D4006B08DB00DC015B0896
:1003C800D5005C08D6000A128A1125220A128A1161
:1003D800831203135308303EFF007F08B8000A3029
:1003E800CD000030CE006B08DB00DC015B08CF00DD
:1003F8005C08D0000A128A115A230A128A11831241
:1004080003134D08303EFF007F08B9000A30D300BF
:100418000030D4006A08DB00DC015B08D5005C080A
:10042800D6000A128A1125220A128A11831203138E
:100438005308303EFF007F08BB000314242A031032
:10044800080083120313D801D41F2B2A2C2A332A1D
:10045800D309D409D30A0319D40AD801D80AD61F54
:10046800362A372A402AD509D609D50A0319D60AC1
:100478000130FF007F08D806D901DA015308540477
:100488000319472A482A7F2AD701D70A562A013052
:100498000310D30DD40DFF3E031D4C2A0130FF007D
:1004A8007F08D707D41F592A5A2A4B2A013003102C
:1004B800D90DDA0DFF3E031D5B2A54085602031DB1
:1004C800672A53085502031C6A2A6B2A722A5308A2
:1004D800D5025408031CD603D60259140130031060
:1004E800D40CD30CFF3E031D732A0130D702031D21
:1004F8007E2A7F2A5A2A58080319832A842A892A95
:10050800D909DA09D90A0319DA0A5A08D4005908A4
:10051800D300080000300A128A1123260A128A1111
:10052800023083120313D3008630D2009830D100F2
:10053800D10B9C2AD20B9C2AD30B9C2A0000033097
:100548000A128A1161260A128A11213083120313B2
:10055800D2007530D100D10BAF2AD20BAF2AB42A02
:1005680003300A128A1161260A128A11483083124E
:100578000313D2006B30D100D10BC02AD20BC02A92
:10058800C52A03300A128A1161260A128A1102301A
:100598000A128A1161260A128A1102300A128A1175
:1005A80061260A128A1108300A128A1161260A1273
:1005B8008A1100300A128A1161260A128A110C3037
:1005C8000A128A1161260A128A1100300A128A1147
:1005D80061260A128A1106300A128A1161260A1245
:1005E8008A11080083120313CE1BFB2AFC2A092B4D
:1005F8004E08803AFF0080307F02031D052B08302B
:100608004D02031C082B092B0E2B83120313CD015B
:10061800CE01592B831203134D18132B172B83125A
:1006280003139F151A2B831203139F114E08D00032
:100638004D08CF00500DD00CCF0C4F18242B282B71
:10064800831203131F162B2B831203131F124E083A
:10065800D0004D08CF00500DD00CCF0C500DD00C51
:10066800CF0C4F18382B3C2B831203139F163F2BAC
:10067800831203139F12283083120313CF00CF0B6A
:10068800432B462B831203131F151F194C2B4D2B7D
:10069800492B1E08D200831603131E088312031366
:1006A800D1005208CE005108CD0008008312031370
:1006B800D201D01F602B612B682BCF09D009CF0A3C
:1006C8000319D00AD201D20ACE1F6B2B6C2B712BC7
:1006D800CD09CE09CD0A0319CE0A4D084E040319D7
:1006E800762B772BA62BD101D10A852B013003104D
:1006F800CD0DCE0DFF3E031D7B2B0130FF007F0883
:10070800D107CE1F882B892B7A2B4E085002031D48
:100718008F2B4D084F02031C922B932B992B4D08BE
:10072800CF024E08031CD003D00201300310CE0CB8
:10073800CD0CFF3E031D9A2B0130D102031DA52BC2
:10074800A62B892B52080319AA2BAB2BB02BCF0948
:10075800D009CF0A0319D00A5008CE004F08CD009F
:100768000800F501F31FB92BBA2BC12BF209F309C5
:10077800F20A0319F30AF501F50AF11FC42BC52B78
:10078800CA2BF009F109F00A0319F10A700871047B
:100798000319CF2BD02BFF2BF401F40ADE2B0130E9
:1007A8000310F00DF10DFF3E031DD42B0130FF00A7
:1007B8007F08F407F11FE12BE22BD32B710873029A
:1007C800031DE82B70087202031CEB2BEC2BF22B99
:1007D8007008F2027108031CF303F30201300310DE
:1007E800F10CF00CFF3E031DF32B0130F402031D46
:1007F800FE2BFF2BE22B75080319032C042C092C64
:10080800F209F309F20A0319F30A7308F1007208EE
:10081800F000080083120313D3005303031D152CA3
:10082800162C3B2C51087F3EFF007F08D600560847
:10083800D20004300310D20CFF3E031D1E2C5208B8
:10084800FF007F08D40056080F39FF007F08D50045
:1008580054080A128A1161260A128A118312031394
:1008680055080A128A1161260A128A11652C02306B
:100878005306031D402C412C652C5108BF3EFF0038
:100888007F08D6005608D20004300310D20CFF3E71
:10089800031D492C5208FF007F08D40056080F3961
:1008A800FF007F08D50054080A128A1161260A122F
:1008B8008A118312031355080A128A1161260A1233
:1008C8008A11080083120313D30053080F39FF005D
:1008D8007F08D1005308F039FF007F08D200881440
:1008E8005208CE0004300310CE0CFF3E031D772CB7
:1008F8004E080A128A1123260A128A118312031338
:100908008815033083120313D0008A30CF00553086
:10091800CE00CE0B8D2CCF0B8D2CD00B8D2C8312B3
:100928000313881151080A128A1123260A128A1100
:10093800831203138815033083120313D0008A30FF
:10094800CF005530CE00CE0BA72CCF0BA72CD00B49
:10095800A72C831203138811080083120313D901EB
:10096800DA01DA2C59085407D7005508D6000318BD
:10097800D60AD91FC02CD603831203135608D800F1
:100988005808FF00570884000A128A1100260A1224
:100998008A110A128A1166240A128A1101308312F6
:1009A8000313D9070318DA0A0030DA07590854077D
:1009B800D7005508D6000318D60AD91FE42CD60349
:1009C800831203135608D8005808FF0057088400FC
:1009D8000A128A1100260A128A11003A031DF52C00
:1009E800F62CB62C080083120313D001CF01031094
:1009F800061A0314003003180130CD00CE014D1C37
:100A0800062D072DFB2C313083120313CD00CD0B9F
:100A18000B2D031083120313061A03140030031856
:100A28000130CD00CE014D1C1A2D1B2D1E2D031497
:100A3800D00D242D5008CD004D07FF007F08D000B1
:100A48000310061A0314003003180130CD00CE013C
:100A58004D182F2D302D242D0130FF007F08CF0792
:100A680008304F02031C392D3A2DFB2C5008080082
:100A780083120313D1000A30FF007F08CD0051080C
:100A880050020A128A1196260A128A11FF007F085C
:100A980083120313D20052080319532D542D712DBC
:100AA800C83052020318592D5A2D6A2D0A30FF00FA
:100AB8007F08CD0052080A128A1196260A128A1156
:100AC8000A128A117D260A128A11772DC8300A1255
:100AD8008A117D260A128A11772D00300A128A118E
:100AE8007D260A128A1108005F344934443454348C
:100AF80065346D34703420343D342034323430342D
:100B08002E343034203443340034523448342034C2
:100B1800203420343D342034303430342E343034D2
:100B2800203425340034543465346D347034203422
:100B38003D342034303430342E343034203443348F
:100B48000034031083120313061A03140030031829
:100B58000130CD00CE014D18B22DB32DA52D0310B7
:100B6800061A0314003003180130CD00CE014D1CC5
:100B7800BE2DBF2DB32D0310061A03140030031821
:100B88000130CD00CE014D18CA2DCB2DBF2D080048
:100B98008B1CCF2DD02DE72D0330F0000030F10055
:100BA8006808013EF200003003180130F3000A1211
:100BB8008A11B5230A128A117008FF007F08831270
:100BC8000313E8008B107808FF0077088A00760E78
:080BD8008300FE0E7E0E0900F1
:100C0000FF1B0A2E83137F1883170008840A031919
:100C1000FF0A080006308A000408840A82070034AC
:100C2000483461346E346434683465346C3464340C
:100C30002034503457344D340034453472347234D7
:100C40006F347234003483120313CD004D1C292EEF
:100C50002A2E2C2E08162D2E0812CD1C302E312EA9
:100C6000332E8816342E88124D1D372E382E3A2EEC
:100C700008173B2E0813CD1D3E2E3F2E412E881700
:100C8000422E8813080083160313061283120313DF
:100C90000612A33083120313CE005430CD00CD0BC7
:100CA0004F2ECE0B4F2E0000831203130616313049
:100CB00083120313CD00CD0B5B2E83160313061690
:100CC000080083120313D000881050080A128A11FA
:100CD00023260A128A118312031388151A308312ED
:100CE0000313CF00F730CE00CE0B742ECF0B742E33
:100CF000792E831203138811080083120313CE0088
:100D00004E18832E872E8312031317168A2E8312F2
:100D10000313171297124E08CD0002300310CD0CAA
:100D2000FF3E031D8E2E4D0895000800831203130D
:100D3000CF00CE014F1C9D2E9E2EA22E4D08FF00EF
:100D40007F08CE070310CD0D0310CF0C4F08031DF5
:100D5000AA2EAB2E9A2E4E0808007E088A007F0825
:100D600082000A128A11AD260A128A118000840AB2
:100D700004087D0603190034FF0A0319FE0AB12E88
:100D80008312031317159715831603130711831284
:100D900003131214921412153130831603139200A8
:100DA0000800493444345234483420342034203448
:100DB0003D342034383435342E3430342034253426
:100DC000003400300A128A1161260A128A11013099
:100DD0000A128A1161260A128A1108004130831210
:100DE00003139F008030831603139F000800143400
:02400E00723FFF
:00000001FF
