:020000040000FA
:060000000A128A1110280B
:10000800FE00030EF6000A08F700831203137F08A8
:10001800F8000A128A11D52D0A128A11132883139F
:10002800B030FD000630FE00D130FF00A030840063
:100038000A128A11B1260A128A114D30FD000530C4
:10004800FE008130FF00203084000A128A11B12698
:100058000A128A110A128A11F7260A128A11F9005D
:10006800E801E901EA01EB01EC01ED0183010A1263
:100078008A113E288316031301170B168B17880164
:100088008312031308110A128A11B0230A128A1163
:100098000A128A11C0260A128A110A128A11EE2639
:1000A8000A128A110A128A11E1260A128A11831287
:1000B80003136808031D61286228A2280A128A11FE
:1000C80033210A128A11031C6A286B289628831286
:1000D8000313D101D10A01300A128A1162240A12CB
:1000E8008A113F3083120313D6000030D7000A125A
:1000F8008A11BA240A128A1183120313D101D10A70
:1001080002300A128A1162240A128A1131308312CB
:100118000313D6000030D7000A128A11BA240A1233
:100128008A110E290E3083120313D6008030D700AF
:100138000A128A11BA240A128A110E296803031DA9
:10014800A628A728D028D101D10A01300A128A117D
:1001580062240A128A11213083120313D600003058
:10016800D7000A128A11BA240A128A1183120313B9
:10017800D101D10A02300A128A1162240A128A11A4
:10018800A03083120313D6000030D7000A128A1158
:10019800BA240A128A110E29D101D10A01300A1291
:1001A8008A1162240A128A11013083120313D600BD
:1001B8008030D7000A128A11BA240A128A118312CF
:1001C8000313D101D10A02300A128A1162240A12D9
:1001D8008A110A3083120313D3000030D400003090
:1001E800CD00CE000A128A118E220A128A118312B9
:1001F80003134E08D6004D08D5000A128A1125228D
:100208000A128A118312031353080A128A117D26CF
:100218000A128A110230831203136806031915297A
:10022800162920295F30FF007F08D0006B080A12CA
:100238008A1145250A128A111A3083120313E7001E
:100248005E30E6006D30E500E50B2829E60B28292D
:10025800E70B28292F2956280A128A1110280A1272
:100268008A1143260A128A110A128A11AE250A1225
:100278008A110A128A1100250A128A11FF007F08C2
:1002880083120313EB000A128A1100250A128A113D
:10029800FF007F0883120313EA000A128A1100255F
:1002A8000A128A11FF007F0883120313ED000A1255
:1002B8008A1100250A128A11FF007F08831203138E
:1002C800EC000A128A1100250A128A11FF007F0821
:1002D80083120313E9006B086A07DB00DC01DC0DFD
:1002E8006D085B07DD000030031801305C07DE0095
:1002F8006C085D07DF000030031801305E07E0007E
:10030800FF305F05E10000306005E2006908E300A6
:10031800E40162086406031D932961086306031D4E
:1003280096299729232A0A30D3000030D4006D0873
:10033800DB00DC015B08D5005C08D6000A128A11D4
:1003480025220A128A11831203135308303EFF0034
:100358007F08C6000A30CD000030CE006D08DB00F3
:10036800DC015B08CF005C08D0000A128A11552313
:100378000A128A11831203134D08303EFF007F08CA
:10038800C7000A30D3000030D4006C08DB00DC0161
:100398005B08D5005C08D6000A128A1125220A12C9
:1003A8008A11831203135308303EFF007F08C900E7
:1003B8000A30D3000030D4006B08DB00DC015B0896
:1003C800D5005C08D6000A128A1125220A128A1161
:1003D800831203135308303EFF007F08B8000A3029
:1003E800CD000030CE006B08DB00DC015B08CF00DD
:1003F8005C08D0000A128A1155230A128A11831246
:1004080003134D08303EFF007F08B9000A30D300BF
:100418000030D4006A08DB00DC015B08D5005C080A
:10042800D6000A128A1125220A128A11831203138E
:100438005308303EFF007F08BB000314242A031032
:10044800080083120313D801D41F2B2A2C2A332A1D
:10045800D309D409D30A0319D40AD801D80AD61F54
:10046800362A372A402AD509D609D50A0319D60AC1
:100478000130FF007F08D806D901DA015308540477
:100488000319472A482A7F2AD701D70A562A013052
:100498000310D30DD40DFF3E031D4C2A0130FF007D
:1004A8007F08D707D41F592A5A2A4B2A013003102C
:1004B800D90DDA0DFF3E031D5B2A54085602031DB1
:1004C800672A53085502031C6A2A6B2A722A5308A2
:1004D800D5025408031CD603D60259140130031060
:1004E800D40CD30CFF3E031D732A0130D702031D21
:1004F8007E2A7F2A5A2A58080319832A842A892A95
:10050800D909DA09D90A0319DA0A5A08D4005908A4
:10051800D300080083120313CE1B932A942AA12A1E
:100528004E08803AFF0080307F02031D9D2A083064
:100538004D02031CA02AA12AA62A83120313CD0167
:10054800CE01F12A831203134D18AB2AAF2A831266
:1005580003139F15B22A831203139F114E08D0006C
:100568004D08CF00500DD00CCF0C4F18BC2AC02A14
:10057800831203131F16C32A831203131F124E0874
:10058800D0004D08CF00500DD00CCF0C500DD00C22
:10059800CF0C4F18D02AD42A831203139F16D72AB8
:1005A800831203139F12283083120313CF00CF0B3B
:1005B800DB2ADE2A831203131F151F19E42AE52AF2
:1005C800E12A1E08D200831603131E0883120313A0
:1005D800D1005208CE005108CD0008008312031341
:1005E800D10051080F39FF007F08CF005108F039BA
:1005F800FF007F08D00088145008CE000430031094
:10060800CE0CFF3E031D032B4E080A128A11232627
:100618000A128A118312031388153330D2008230EC
:10062800D3000000FF3083120313D2070318D30A44
:10063800FF30D3075308803AFF0080307F02031D44
:10064800272B01305202031C2A2B2B2B152B83122C
:10065800031388114F080A128A1123260A128A11D5
:100668008312031388153330D4008230D50000007C
:10067800FF3083120313D4070318D50AFF30D507B8
:100688005508803AFF0080307F02031D4D2B013052
:100698005402031C502B512B3B2B8312031388113C
:1006A800080083120313D201D01F5B2B5C2B632B32
:1006B800CF09D009CF0A0319D00AD201D20ACE1F16
:1006C800662B672B6C2BCD09CE09CD0A0319CE0AF0
:1006D8004D084E040319712B722BA12BD101D10A9D
:1006E800802B01300310CD0DCE0DFF3E031D762B60
:1006F8000130FF007F08D107CE1F832B842B752B79
:100708004E085002031D8A2B4D084F02031C8D2BE7
:100718008E2B942B4D08CF024E08031CD003D00219
:1007280001300310CE0CCD0CFF3E031D952B01307C
:10073800D102031DA02BA12B842B52080319A52B32
:10074800A62BAB2BCF09D009CF0A0319D00A500822
:10075800CE004F08CD00080000300A128A11232667
:100768000A128A1103300A128A1161260A128A11A2
:10077800213083120313D2007530D100D10BC22B64
:10078800D20BC22BC72B03300A128A1161260A1218
:100798008A11483083120313D2006B30D100D10B79
:1007A800D32BD20BD32BD82B03300A128A116126F4
:1007B8000A128A1102300A128A1161260A128A1153
:1007C80002300A128A1161260A128A1108300A12A6
:1007D8008A1161260A128A1100300A128A116126CA
:1007E8000A128A110C300A128A1161260A128A1119
:1007F80000300A128A1161260A128A1106300A127A
:100808008A1161260A128A110800F501F31F0D2CBE
:100818000E2C152CF209F309F20A0319F30AF50153
:10082800F50AF11F182C192C1E2CF009F109F00AF1
:100838000319F10A700871040319232C242C532C72
:10084800F401F40A322C01300310F00DF10DFF3ED3
:10085800031D282C0130FF007F08F407F11F352CF9
:10086800362C272C71087302031D3C2C7008720269
:10087800031C3F2C402C462C7008F2027108031C04
:10088800F303F30201300310F10CF00CFF3E031DDB
:10089800472C0130F402031D522C532C362C7508BA
:1008A8000319572C582C5D2CF209F309F20A031985
:1008B800F30A7308F1007208F000080083120313AA
:1008C800D3005303031D692C6A2C8F2C51087F3EDB
:1008D800FF007F08D6005608D20004300310D20C5F
:1008E800FF3E031D722C5208FF007F08D4005608F3
:1008F8000F39FF007F08D50054080A128A116126B3
:100908000A128A118312031355080A128A116126E2
:100918000A128A11B92C02305306031D942C952C07
:10092800B92C5108BF3EFF007F08D6005608D200F8
:1009380004300310D20CFF3E031D9D2C5208FF000B
:100948007F08D40056080F39FF007F08D5005408E7
:100958000A128A1161260A128A1183120313550892
:100968000A128A1161260A128A11080083120313D7
:10097800DB01DC01E32C5B085607D9005708D800D7
:100988000318D80ADB1FC92CD8038312031358088D
:10099800DA005A08FF00590884000A128A11002652
:1009A8000A128A110A128A11F2220A128A110130D5
:1009B80083120313DB070318DC0A0030DC075B082B
:1009C8005607D9005708D8000318D80ADB1FED2CA2
:1009D800D803831203135808DA005A08FF0059088D
:1009E80084000A128A1100260A128A11003A031D8D
:1009F800FE2CFF2CBF2C080083120313D001CF015B
:100A08000310061A0314003003180130CD00CE017C
:100A18004D1C0F2D102D042D313083120313CD00E2
:100A2800CD0B142D031083120313061A0314003080
:100A380003180130CD00CE014D1C232D242D272D68
:100A48000314D00D2D2D5008CD004D07FF007F0851
:100A5800D0000310061A0314003003180130CD002B
:100A6800CE014D18382D392D2D2D0130FF007F086E
:100A7800CF0708304F02031C422D432D042D500888
:100A8800080083120313D1000A30FF007F08CD004D
:100A9800510850020A128A1196260A128A11FF007A
:100AA8007F0883120313D200520803195C2D5D2DB1
:100AB8007A2DC83052020318622D632D732D0A3027
:100AC800FF007F08CD0052080A128A1196260A12E2
:100AD8008A110A128A117D260A128A11802DC830BD
:100AE8000A128A117D260A128A11802D00300A12F4
:100AF8008A117D260A128A1108005F344934443469
:100B0800543465346D34703420343D3420343234F8
:100B180030342E34303420344334003452344834A2
:100B28002034203420343D342034303430342E34D2
:100B38003034203425340034543465346D34703402
:100B480020343D342034303430342E3430342034A2
:100B580043340034031083120313061A03140030BD
:100B680003180130CD00CE014D18BB2DBC2DAE2D84
:100B78000310061A0314003003180130CD00CE010B
:100B88004D1CC72DC82DBC2D0310061A03140030A8
:100B980003180130CD00CE014D18D32DD42DC82D0A
:100BA80008008B1CD82DD92DF02D0330F000003013
:100BB800F1006808013EF200003003180130F3002C
:100BC8000A128A1109240A128A117008FF007F0884
:100BD80083120313E8008B107808FF0077088A0057
:0A0BE800760E8300FE0E7E0E09005B
:100C0000FF1B0A2E83137F1883170008840A031919
:100C1000FF0A080006308A000408840A82070034AC
:100C2000483461346E346434683465346C3464340C
:100C30002034503457344D340034453472347234D7
:100C40006F347234003483120313CD004D1C292EEF
:100C50002A2E2C2E08162D2E0812CD1C302E312EA9
:100C6000332E8816342E88124D1D372E382E3A2EEC
:100C700008173B2E0813CD1D3E2E3F2E412E881700
:100C8000422E8813080083160313061283120313DF
:100C90000612A33083120313CE005430CD00CD0BC7
:100CA0004F2ECE0B4F2E0000831203130616313049
:100CB00083120313CD00CD0B5B2E83160313061690
:100CC000080083120313D000881050080A128A11FA
:100CD00023260A128A118312031388151A308312ED
:100CE0000313CF00F730CE00CE0B742ECF0B742E33
:100CF000792E831203138811080083120313CE0088
:100D00004E18832E872E8312031317168A2E8312F2
:100D10000313171297124E08CD0002300310CD0CAA
:100D2000FF3E031D8E2E4D0895000800831203130D
:100D3000CF00CE014F1C9D2E9E2EA22E4D08FF00EF
:100D40007F08CE070310CD0D0310CF0C4F08031DF5
:100D5000AA2EAB2E9A2E4E0808007E088A007F0825
:100D600082000A128A11AD260A128A118000840AB2
:100D700004087D0603190034FF0A0319FE0AB12E88
:100D80008312031317159715831603130711831284
:100D900003131214921412153130831603139200A8
:100DA0000800493444345234483420342034203448
:100DB0003D342034383435342E3430342034253426
:100DC000003400300A128A1161260A128A11013099
:100DD0000A128A1161260A128A1108004130831210
:100DE00003139F008030831603139F000800143400
:02400E00723FFF
:00000001FF
